:100000000C9472000C949A000C949A000C949A0030
:100010000C949A000C949A000C949A000C949A00F8
:100020000C949A000C949A000C949A000C949A00E8
:100030000C949A000C949A000C949A000C949A00D8
:100040000C9492030C949A000C9402040C94DC031C
:100050000C949A000C949A000C949A000C949A00B8
:100060000C9434040C949A00FD0622089A06220887
:1000700022082208A9062208D80622082208C70654
:10008000220822082208220822088B06B8060C083B
:100090000F081208150818081B081E0800000000A9
:1000A000250028002B0004040404040404040202B4
:1000B00002020202030303030303010204081020E7
:1000C00040800102040810200102040810200000F2
:1000D0000008000201000003040700000000000007
:1000E0000000620511241FBECFEFD8E0DEBFCDBFF8
:1000F00011E0A0E0B1E0E2E2F1E102C005900D9272
:10010000A837B107D9F722E0A8E7B1E001C01D92F6
:10011000AA3FB207E1F710E0C2E7D0E004C02197A0
:10012000FE010E947D08C137D107C9F70E949B05D7
:100130000C948F080C940000382F2091500290915D
:100140004F02213208F049C080912C028111FCCF6E
:1001500042E040932C0230932B023FEF30932A026F
:100160001092290220932802AFE2B2E048E052E068
:10017000FA013E2F341B321718F43D913193F9CF19
:100180001092070220910702990F922B9093070279
:1001900090910602913061F410920602909107024C
:1001A0009093BB009091BC0093FDF8CF95EC01C0FB
:1001B00095EE9093BC0090912C029230E1F39091D7
:1001C0002A029F3F79F080912A02803241F080918B
:1001D0002A02803331F084E005C081E003C082E070
:1001E00001C083E010922E021092500210922D0254
:1001F0000895CF92DF92EF92FF920F931F93CF93C8
:10020000DF936C017A018B01C0E0D0E0CE15DF05F1
:1002100089F0D8016D918D01D601ED91FC9101908D
:10022000F081E02DC6010995892B11F47E0102C0F1
:100230002196ECCFC701DF91CF911F910F91FF90D5
:10024000EF90DF90CF900895FC01538D448D252FC2
:1002500030E0842F90E0821B930B541710F0CF9660
:10026000089501970895FC01918D828D981761F092
:10027000828DDF01A80FB11D5D968C91928D9F5FDD
:100280009F73928F90E008958FEF9FEF0895FC0188
:10029000918D828D981731F0828DE80FF11D858D3B
:1002A00090E008958FEF9FEF0895FC01918D228DCE
:1002B000892F90E0805C9F4F821B91098F73992753
:1002C000089581E592E00E94550121E0892B09F40F
:1002D00020E0822F0895FC01848DDF01A80FB11D5D
:1002E000A35ABF4F2C91848D90E001968F7399276C
:1002F000848FA689B7892C93A089B1898C91806459
:100300008C93938D848D981306C00288F389E02D19
:1003100080818F7D80830895EF92FF920F931F93CA
:10032000CF93DF93EC0181E0888F9B8D8C8D9813A8
:1003300005C0E889F989808185FD24C0F62E0B8DE2
:1003400010E00F5F1F4F0F731127E02E8C8DE81206
:100350000CC00FB607FCFACFE889F989808185FFC8
:10036000F5CFCE010E946B01F1CF8B8DFE01E80F1E
:10037000F11DE35AFF4FF0820B8FEA89FB898081E0
:10038000806207C0EE89FF896083E889F9898081EE
:100390008064808381E090E0DF91CF911F910F9185
:1003A000FF90EF900895CF93DF93EC01888D882321
:1003B000C9F0EA89FB89808185FD05C0A889B989D2
:1003C0008C9186FD0FC00FB607FCF5CF808185FFAD
:1003D000F2CFA889B9898C9185FFEDCFCE010E941B
:1003E0006B01E7CFDF91CF91089580E090E0892BFA
:1003F00029F00E94610181110C940000089590E0A1
:10040000FC01E253FF4F3491FC01E654FF4F24916D
:10041000FC01EA55FF4FE491EE2309F43BC033237E
:1004200039F1333091F038F43130A9F0323001F540
:1004300084B58F7D12C0373091F03830A1F0343060
:10044000B9F4809180008F7D03C0809180008F7708
:10045000809380000DC084B58F7784BD09C08091E2
:10046000B0008F7703C08091B0008F7D8093B00083
:10047000F0E0EE0FFF1FE456FF4FA591B4918FB748
:10048000F894EC91611103C020952E2301C02E2B0E
:100490002C938FBF089585ED8093BC008091BC00A4
:1004A00084FDFCCF10922C02089540919A01262FD2
:1004B00030E0240F311D21323105DCF420912C0273
:1004C0002430C9F4FC0180E090E0861758F43091A4
:1004D0009A012191DC01A858BE4FA30FB11D2C93A6
:1004E0000196F3CF80919A01680F60939A0180E0A2
:1004F000089581E0089582E008950895E091C00193
:100500008091BF01E81730F4F0E0EF53FE4F808197
:1005100090E008958FEF9FEF08959091C001809132
:10052000BF01981750F4E92FF0E0EF53FE4F208100
:1005300030E09F5F9093C00102C02FEF3FEFC901F1
:1005400008958091BF0190E02091C001821B910924
:100550000895CF92DF92EF92FF920F931F93CF9364
:10056000DF937C01262F972F8A0180912D0288230B
:1005700091F0C62FD72F6E01C40ED51ECC15DD0508
:1005800071F06991D701ED91FC910190F081E02D1E
:10059000C7010995F3CF642F822F0E945502C8012D
:1005A000DF91CF911F910F91FF90EF90DF90CF904F
:1005B0000895CF93DF931F92CDB7DEB76983209163
:1005C0002D022223D1F020915002203240F021E070
:1005D00030E0FC013383228380E090E015C08091FD
:1005E0002E02E82FF0E0E15DFD4F998190838F5F4F
:1005F00080932E028093500205C061E0CE010196E7
:100600000E94550281E090E00F90DF91CF91089514
:10061000089580E090E00895CF93C82F81E0809303
:100620002D0288E680934F0210922E021092500203
:100630008EEE92E00E94D9028C2F6AE00E944F0851
:10064000692F20E1829F600D11248EEE92E00E94BE
:10065000D90281E0CF910C949C00009769F0FC01D5
:1006600001900020E9F73197AF01481B590BBC01FD
:1006700081E592E00C94F90080E090E00895CF933A
:10068000DF930E942D03EC0186E291E00E942D038E
:100690008C0F9D1FDF91CF9108950C942D038F92A5
:1006A0009F92AF92BF920F931F93CF93DF93CDB7DB
:1006B000DEB7A1970FB6F894DEBF0FBECDBF19A26B
:1006C000423008F44AE08E010F5D1F4F842E912CBA
:1006D000A12CB12CA50194010E945B08E62FB90161
:1006E000CA0101501109EA3014F4E05D01C0E95C6F
:1006F000D801EC93232B242B252B61F7C8010E94F2
:100700002D03A1960FB6F894DEBF0FBECDBFDF91CB
:10071000CF911F910F91BF90AF909F908F900895B0
:100720000E9483081F920F920FB60F9211242F93ED
:100730003F938F939F93AF93BF93809102029091C9
:100740000302A0910402B09105023091010223E05E
:10075000230F2D3720F40196A11DB11D05C026E8F9
:10076000230F0296A11DB11D209301028093020266
:1007700090930302A0930402B09305028091FD01BF
:100780009091FE01A091FF01B09100020196A11D80
:10079000B11D8093FD019093FE01A093FF01B093E2
:1007A0000002BF91AF919F918F913F912F910F9038
:1007B0000FBE0F901F9018951F920F920FB60F92B9
:1007C00011242F933F934F935F936F937F938F9356
:1007D0009F93AF93BF93EF93FF9381E592E00E94C5
:1007E0006B01FF91EF91BF91AF919F918F917F919D
:1007F0006F915F914F913F912F910F900FBE0F908E
:100800001F9018951F920F920FB60F9211242F93DD
:100810008F939F93EF93FF93E0916102F0916202B7
:100820008081E0916702F091680282FD12C09081A0
:1008300080916A028F5F8F7320916B02821751F053
:10084000E0916A02F0E0EF5AFD4F958F80936A02C3
:1008500001C08081FF91EF919F918F912F910F9017
:100860000FBE0F901F9018951F920F920FB60F9208
:1008700011242F933F934F935F936F937F938F93A5
:100880009F93AF93BF93EF93FF938091B900887FBD
:10089000803609F49CC068F5883209F45BC090F496
:1008A000803109F454C038F4882309F4F6C0883044
:1008B00009F44DC0F6C0883109F44CC0803209F407
:1008C0005DC0EFC0803409F468C048F4803309F497
:1008D00055C0883309F0E5C080932A02D8C080351E
:1008E00009F44FC0883509F45DC0883409F0D9C0D7
:1008F000D6C0883909F4C7C0A8F4883709F467C09E
:1009000038F4883609F463C0803709F460C0C9C080
:10091000883809F4B8C0803909F45FC0803809F01C
:10092000C0C05BC0803B09F486C038F4803A09F44B
:1009300066C0883A09F47FC0B4C0803C09F4A7C0FF
:10094000883C09F4A4C0883B09F48AC0AAC08091FD
:10095000070210C09091290280912802981770F523
:10096000E091290281E08E0F80932902F0E0E85F98
:10097000FD4F80818093BB0085EC86C080932A0266
:100980008EC0E091290281E08E0F80932902809130
:10099000BB00F0E0E85FFD4F8083909129028091D9
:1009A00028026EC0E091290281E08E0F8093290217
:1009B0008091BB00F0E0E85FFD4F808380912B02C7
:1009C00081116DC081E08093060284EA61C083E0FA
:1009D00080932C021092BE01CFCF8091BE01803255
:1009E00008F051C0E091BE0181E08E0F8093BE01FE
:1009F0008091BB00F0E0E256FE4F8083BDCF85ECD6
:100A00008093BC0010922C028091BE01803230F4A1
:100A1000E091BE01F0E0E256FE4F10826091BE010F
:100A200070E0E0919C01F0919D018EE991E00995C3
:100A30001092BE0136C084E080932C0210929B017C
:100A400010929A01E0919801F09199010995809195
:100A50009A01811105C081E080939A01109278017A
:100A6000E0919B0181E08E0F80939B01F0E0E858BC
:100A7000FE4F80818093BB0090919B0180919A01F1
:100A8000981708F479CF85E88093BC000AC085ECFC
:100A90008093BC0010922C0204C010922A020E9483
:100AA0004B02FF91EF91BF91AF919F918F917F91F9
:100AB0006F915F914F913F912F910F900FBE0F90CB
:100AC0001F901895E1E5F2E01382128288EE93E020
:100AD000A0E0B0E084839583A683B78326E031E06D
:100AE0003183208325EC30E03587248724EC30E007
:100AF0003787268720EC30E0318B208B21EC30E0EB
:100B0000338B228B22EC30E0358B248B26EC30E0CB
:100B1000378B268B118E128E138E148EEEEEF2E032
:100B20001382128284839583A683B78388E191E040
:100B3000918380830895CF93DF9300D01F92CDB728
:100B4000DEB7789484B5826084BD84B5816084BD4D
:100B500085B5826085BD85B5816085BD80916E005B
:100B6000816080936E00109281008091810082608C
:100B700080938100809181008160809381008091C9
:100B800080008160809380008091B10084608093B8
:100B9000B1008091B00081608093B00080917A00B4
:100BA000846080937A0080917A00826080937A00DA
:100BB00080917A00816080937A0080917A008068C9
:100BC00080937A001092C100E0916102F09162027C
:100BD00082E08083E0915D02F0915E021082E091FC
:100BE0005F02F09160028FEC808310926902E091C5
:100BF0006502F091660286E08083E0916302F091E5
:100C00006402808180618083E0916302F0916402DC
:100C1000808188608083E0916302F091640280812A
:100C200080688083E0916302F091640280818F7D0F
:100C300080831092C0011092BF0110922E02109278
:100C4000500210922C0281E080932B021092060237
:100C500061E082E10E94FF0161E083E10E94FF0107
:100C60008091B9008E7F8093B9008091B9008D7F0B
:100C70008093B90088E48093B80085E48093BC0039
:100C800063E070E082E00E940C0301E010E0DD24EC
:100C9000D394BB24BA9486E0A82E91ECE92E91E07F
:100CA000F92E25EE922E35EC832E81E592E00E94FE
:100CB0005501892B09F4CAC181E592E00E943301F4
:100CC0002091000130910101F901E751FE4F2531DA
:100CD000310574F48A3061F08D3051F08C3241F07E
:100CE00080832F5F3F4F3093010120930001AEC1FD
:100CF0001082E091EA018E2FEE0F990BAA0BBB0B2D
:100D0000FC01E254F109E331F10508F09BC1EC5C10
:100D1000FF4F0C947D086BEE71E0CE0101960E94AE
:100D20008808CE0101960E9429088093E80160E0BE
:100D300070E03BC06BEE71E0CE0101960E94880826
:100D4000CE0101960E9429088093E70161E070E0DE
:100D50002CC06BEE71E0CE0101960E948808CE0196
:100D600001960E9429088093E60162E070E01DC0B0
:100D70006BEE71E0CE0101960E948808CE010196CB
:100D80000E9429088093E50164E070E00EC06BEEDC
:100D900071E0CE0101960E948808CE0101960E9462
:100DA00029088093E40165E070E00E940C034AC1C9
:100DB0006DEE71E0CE0101960E948808CE01019689
:100DC0000E9429088093E30166E070E00E940C0312
:100DD0008091E1019091E201892B29F41093E201C5
:100DE0000093E10104C01092E2011092E1016091D0
:100DF000E1018DE00E94FF0125C1D0922D0228E67D
:100E000020934F0210922E021092500260E08EEE5C
:100E100092E00E94D90281E00E949C0080912C0205
:100E20008111FCCFD0922C02D0922B02B0922A02D8
:100E300010922902A0922802D09207028091070204
:100E4000806D8093070280910602813069F41092D0
:100E50000602809107028093BB008091BC0083FD55
:100E6000F8CF8092BC0002C09092BC0080912C020E
:100E70008130E1F380912902873018F480912902B2
:100E800001C087E0A8E0B2E0E1ECF1E09E2F9E19FE
:100E9000981718F49D919193F9CF1092C001809307
:100EA000BF018EEE92E00E948D02982F9695969546
:100EB00096959E70692E660C660C690E8F70680E92
:100EC0008EEE92E00E948D02982F92959F708F7007
:100ED000582E2AE0929F500C11248EEE92E00E9430
:100EE0008D02282F2695269526952670622F660F4F
:100EF000660F260F8F70C22EC80E8EEE92E00E94F3
:100F00008D02982F92959F708F70782E2AE0929F75
:100F1000700C11248EEE92E00E948D02982F929513
:100F20009F708F70282E2AE0929F200C11248EEE45
:100F300092E00E948D02982F92959F708F70382EAC
:100F40002AE0929F300C11248EEE92E00E948D02D6
:100F5000982F92959F708F70482E2AE0929F400C98
:100F600011246C2D70E080E090E04AE00E944F0375
:100F700089E291E00E944D0389E0851520F08BE223
:100F800091E00E944D03652D70E080E090E04AE022
:100F90000E944F0389E291E00E944D0329E026154B
:100FA00020F08BE291E00E944D03662D70E080E01E
:100FB00090E04AE00E944F038CE391E00E944D03D1
:100FC000622D70E080E090E04AE00E944F038DE2E5
:100FD00091E00E944D03632D70E080E090E04AE0D4
:100FE0000E944F038DE291E00E944D03642D70E05A
:100FF00080E090E04AE00E944F038FE291E00E947F
:101000004D03872D90E0FC013197E730F105D0F4D6
:10101000E95BFF4F0C947D088EE391E011C085E4FD
:1010200091E00EC08CE491E00BC084E591E008C033
:101030008EE591E005C087E691E002C08EE691E082
:101040000E943F0310930101009300010E94F501EB
:101050002CCEFC0188279927E89421912032E9F3CE
:10106000293010F02E30C8F32B3241F02D3239F4F4
:10107000689404C00E944708820F911D219120535B
:101080002A30C0F31EF4909581959F4F08957AE021
:10109000979F902D879F802D910D11240895991B66
:1010A00079E004C0991F961708F0961B881F7A955F
:1010B000C9F780950895A1E21A2EAA1BBB1BFD015A
:1010C0000DC0AA1FBB1FEE1FFF1FA217B307E40727
:1010D000F50720F0A21BB30BE40BF50B661F771F7F
:1010E000881F991F1A9469F760957095809590955F
:1010F0009B01AC01BD01CF010895EE0FFF1F0590CC
:10110000F491E02D099481E090E0F8940C948F081C
:10111000FB01DC0101900D920020E1F70895F894A5
:02112000FFCFFF
:101122000100000000008C01F9002401D3015501E7
:101132003301470100000000D902A90209037D0220
:10114200A1028D027E020D0A003A0030002F00201B
:10115200446179206F66207765656B3A200053758C
:101162006E646179004D6F6E6461790054756573C8
:10117200646179005765646E6573646179005468CF
:1011820075727364617900467269646179005361B2
:081192007475726461790000BC
:00000001FF
